:020000020000FC
:100000000C946F000C9408000C9434000C946F0056
:1000100083958330A1F00CE2302E02E00F933F92E3
:1000200000E3302E06E03A94F1F73A940A95D9F7B6
:100030003F900F913A9491F70A9581F7189580E0D7
:100040000CE2302E02E00F933F9200E3302E06E0E8
:100050003A94F1F73A940A95D9F73F900F913A9470
:1000600091F70A9581F718950CE2302E02E00F9374
:100070003F9200E3302E06E03A94F1F73A940A9565
:10008000D9F73F900F913A9491F70A9581F7803014
:1000900029F0813059F0823091F01895172F1170A6
:1000A000103011F07E7F189571601895172F12701F
:1000B000103019F07D7FC0E0189572601895172FE9
:1000C0001470103031F07B7F28E037E06EE052D2C0
:1000D0001895746026E934E06EE04CD218950FEF65
:1000E0000DBF00E10EBF07E009BF0FEF07BB78941B
:1000F0004ED080E070E0C0E006E806B903E007B942
:1001000002E002B9199A129A6BC200E000939000C3
:1001100002E002B9002708E10AB9002706E00093CF
:1001200095000CE009B908955D9BFECF2CB90895A8
:100130005F9BFECF2CB108953090008037FCFCCF40
:1001400003D000930080089500D0000008952D3062
:1001500091F12A30D1F10091008007FDFCCFF4DF4E
:10016000209300C0089501E0E7CF02E0E5CF00E171
:10017000E3CF04E1E1CF08E1DFCF0CE1DDCF0DE01B
:10018000DBCF0CE0D9CF0EE0D7CF0CE0D5CF05B751
:10019000006C05BF01E0D0DF06E0CEDF0CE0CCDF75
:1001A00008E3CADF0895022F0068C6CF2F9320E02E
:1001B000FADF2F9108950091008007FDFCCF0074B5
:1001C0000068C2DF0093008008952F9320E4EBDFE6
:1001D0002F910895FF91EF91EE0FFF1FAF93BF9303
:1001E000C8953196002021F04AF0002D13D0F8CFA9
:1001F0003196F695E795BF91AF91099400FA002DDD
:10020000C895A02DBB273196043879F0053881F0C8
:1002100015C0E6CF2F93FF93EF93E42DF52D202FFC
:100220000995EF91FF912F9108950C91F3DFD8CFAD
:100230000D91002309F4D4CFEDDFFACF5F934F93F4
:100240003F932F939F938F937F936F932D913D9126
:100250004D915D9106FD06C005FD0FC004FD10C067
:1002600003FD19C06AE0702F76957770729580E073
:10027000902F9295937093951AC062E094E003C01A
:1002800060E194E000C0702F7695777009F478E013
:10029000729580E00CC06AE0C895802D3196C895B3
:1002A000702D3196902F95959370939500C0943052
:1002B00081F0933051F0923021F0332716F427FD6E
:1002C0003FEF442716F437FD4FEF552716F447FD4F
:1002D0005FEF09D06F917F918F919F912F913F9107
:1002E0004F915F917DCFCF92BF92AF929F928F92AD
:1002F000BB18AA249924882486F4E89455236AF428
:100300006894772309F07051509540953095209569
:100310000FEF201B300B400B500B882351F05595ED
:10032000479537952795B794A794979487948A957E
:10033000B1F77F9372957F700EE20F9345D00C2D2D
:1003400030D00F930027201730074007500729F0BF
:100350007723A1F37A9591F707C0772329F07A954F
:1003600019F000E257DFF9CF16F40DE253DF0F91D9
:100370000E3211F04FDFFBCF7F917F70772359F062
:1003800049DF282D392D4A2D5B2D11D00C2D09D098
:1003900041DF7A95D1F78F909F90AF90BF90CF902B
:1003A00008950A3010F4005D0895095A0895CC2488
:1003B00000E2889420FDC60EC7945795479537955F
:1003C00027950A95B1F70895CC2400E2221F331F28
:1003D000441F551FCC1CC61A08F4C60E0A95B1F767
:1003E000221F331F441F551F50954095309520956F
:1003F0000895803029F0813021F0823019F008957D
:1004000002C03EC07AC007EA402E00E0502EE2DE75
:100410000D0D4E6F74696669636174696F6E20209B
:100420002000D3DE172F11701030A9F007EA402EFC
:1004300000E0502ECFDE0D0D4F4E2020202020203A
:1004400020202020202020202000B0DE212F20E0AE
:10045000AADE122F14C007EA402E00E0502EBADEAA
:100460000D0D4F4646202020202020202020202037
:10047000202020009BDE212F20E095DE122F089502
:1004800007EA402E00E0502EA5DE0D0D536F756E6D
:1004900064202020202020202020200096DE172FFE
:1004A00012701030A9F007EA402E00E0502E92DEC4
:1004B0000D0D4F4E20202020202020202020202005
:1004C0002020200073DE212F20E06DDE122F14C0CB
:1004D00007EA402E00E0502E7DDE0D0D4F464620EF
:1004E00020202020202020202020202020005EDE30
:1004F000212F20E058DE122F089507EA402E00E059
:10050000502E68DE0D0D4C6F636B202020202020C4
:1005100020202020200059DE172F14701030A9F061
:1005200007EA402E00E0502E55DE0D0D4F4E2020E4
:10053000202020202020202020202020200036DE07
:10054000212F20E030DE122F14C007EA402E00E0F9
:10055000502E40DE0D0D4F4646202020202020202A
:10056000202020202020200021DE212F20E01BDE63
:10057000122F089503D06A95E9F7089509E2302E05
:1005800009E63A94F1F73A940A95D9F7422F532F96
:10059000C49A0FEF400F501FE1F7C498089502E886
:1005A000302E01E03A94F1F73A940A95D9F708957C
:1005B00008EC302E01E03A94F1F73A940A95D9F715
:1005C00008951998ECDF0894479508F4199A08F0F3
:1005D0001998E5DF88944423B9F7199AE0DF089564
:1005E00008DFC03021F01A9A09E9302E03E03A946E
:1005F000F1F73A940A95D9F71A9809E9302E03E0F1
:100600003A94F1F73A940A95D9F7369A3699FECF8B
:1006100024B135B19F93AF93A2E090E029173A0738
:100620009F91AF9114F4B0E0DBCF172F1170103011
:10063000D9F0B130C9F07F9371E6472FC2DF7F91C7
:1006400004E6302E01E00F933F9200E3302E06E0E7
:100650003A94F1F73A940A95D9F73F900F913A946A
:1006600091F70A9581F7B1E0172F1270103009F059
:04067000C1E0B6CF60
:00000001FF
